{
  "_format": "hh-sol-artifact-1",
  "contractName": "VoterContract",
  "sourceName": "contracts/VoterContract.sol",
  "abi": [
    {
      "inputs": [
        {
          "internalType": "string[]",
          "name": "candidateNames",
          "type": "string[]"
        }
      ],
      "stateMutability": "nonpayable",
      "type": "constructor"
    },
    {
      "inputs": [
        {
          "internalType": "uint256",
          "name": "",
          "type": "uint256"
        }
      ],
      "name": "candidates",
      "outputs": [
        {
          "internalType": "string",
          "name": "name",
          "type": "string"
        },
        {
          "internalType": "uint256",
          "name": "voteCount",
          "type": "uint256"
        }
      ],
      "stateMutability": "view",
      "type": "function"
    },
    {
      "inputs": [],
      "name": "chairperson",
      "outputs": [
        {
          "internalType": "address",
          "name": "",
          "type": "address"
        }
      ],
      "stateMutability": "view",
      "type": "function"
    },
    {
      "inputs": [],
      "name": "endVote",
      "outputs": [],
      "stateMutability": "nonpayable",
      "type": "function"
    },
    {
      "inputs": [],
      "name": "getCandidates",
      "outputs": [
        {
          "internalType": "string[]",
          "name": "candidateNames",
          "type": "string[]"
        }
      ],
      "stateMutability": "view",
      "type": "function"
    },
    {
      "inputs": [
        {
          "internalType": "address",
          "name": "voterAddress",
          "type": "address"
        }
      ],
      "name": "giveRightsToVote",
      "outputs": [],
      "stateMutability": "nonpayable",
      "type": "function"
    },
    {
      "inputs": [],
      "name": "stage",
      "outputs": [
        {
          "internalType": "enum VoterContract.VotingStages",
          "name": "",
          "type": "uint8"
        }
      ],
      "stateMutability": "view",
      "type": "function"
    },
    {
      "inputs": [],
      "name": "startVote",
      "outputs": [],
      "stateMutability": "nonpayable",
      "type": "function"
    },
    {
      "inputs": [
        {
          "internalType": "uint256",
          "name": "candidateIdentifier",
          "type": "uint256"
        }
      ],
      "name": "vote",
      "outputs": [],
      "stateMutability": "nonpayable",
      "type": "function"
    },
    {
      "inputs": [],
      "name": "winningCandidate",
      "outputs": [
        {
          "internalType": "string",
          "name": "winnerName",
          "type": "string"
        }
      ],
      "stateMutability": "view",
      "type": "function"
    }
  ],
  "bytecode": "0x60806040523480156200001157600080fd5b5060405162001bd138038062001bd18339818101604052810190620000379190620003e1565b60005b8151811015620000dc576000604051806040016040528084848151811062000067576200006662000432565b5b60200260200101518152602001600081525090806001815401808255809150506001900390600052602060002090600202016000909190919091506000820151816000019081620000b99190620006ac565b506020820151816001015550508080620000d390620007c2565b9150506200003a565b50336001806101000a81548173ffffffffffffffffffffffffffffffffffffffff021916908373ffffffffffffffffffffffffffffffffffffffff1602179055506002600160006101000a81548160ff021916908360028111156200014657620001456200080f565b5b0217905550506200083e565b6000604051905090565b600080fd5b600080fd5b600080fd5b6000601f19601f8301169050919050565b7f4e487b7100000000000000000000000000000000000000000000000000000000600052604160045260246000fd5b620001b6826200016b565b810181811067ffffffffffffffff82111715620001d857620001d76200017c565b5b80604052505050565b6000620001ed62000152565b9050620001fb8282620001ab565b919050565b600067ffffffffffffffff8211156200021e576200021d6200017c565b5b602082029050602081019050919050565b600080fd5b600080fd5b600067ffffffffffffffff8211156200025757620002566200017c565b5b62000262826200016b565b9050602081019050919050565b60005b838110156200028f57808201518184015260208101905062000272565b60008484015250505050565b6000620002b2620002ac8462000239565b620001e1565b905082815260208101848484011115620002d157620002d062000234565b5b620002de8482856200026f565b509392505050565b600082601f830112620002fe57620002fd62000166565b5b8151620003108482602086016200029b565b91505092915050565b6000620003306200032a8462000200565b620001e1565b905080838252602082019050602084028301858111156200035657620003556200022f565b5b835b81811015620003a457805167ffffffffffffffff8111156200037f576200037e62000166565b5b8086016200038e8982620002e6565b8552602085019450505060208101905062000358565b5050509392505050565b600082601f830112620003c657620003c562000166565b5b8151620003d884826020860162000319565b91505092915050565b600060208284031215620003fa57620003f96200015c565b5b600082015167ffffffffffffffff8111156200041b576200041a62000161565b5b6200042984828501620003ae565b91505092915050565b7f4e487b7100000000000000000000000000000000000000000000000000000000600052603260045260246000fd5b600081519050919050565b7f4e487b7100000000000000000000000000000000000000000000000000000000600052602260045260246000fd5b60006002820490506001821680620004b457607f821691505b602082108103620004ca57620004c96200046c565b5b50919050565b60008190508160005260206000209050919050565b60006020601f8301049050919050565b600082821b905092915050565b600060088302620005347fffffffffffffffffffffffffffffffffffffffffffffffffffffffffffffffff82620004f5565b620005408683620004f5565b95508019841693508086168417925050509392505050565b6000819050919050565b6000819050919050565b60006200058d62000587620005818462000558565b62000562565b62000558565b9050919050565b6000819050919050565b620005a9836200056c565b620005c1620005b88262000594565b84845462000502565b825550505050565b600090565b620005d8620005c9565b620005e58184846200059e565b505050565b5b818110156200060d5762000601600082620005ce565b600181019050620005eb565b5050565b601f8211156200065c576200062681620004d0565b6200063184620004e5565b8101602085101562000641578190505b620006596200065085620004e5565b830182620005ea565b50505b505050565b600082821c905092915050565b6000620006816000198460080262000661565b1980831691505092915050565b60006200069c83836200066e565b9150826002028217905092915050565b620006b78262000461565b67ffffffffffffffff811115620006d357620006d26200017c565b5b620006df82546200049b565b620006ec82828562000611565b600060209050601f8311600181146200072457600084156200070f578287015190505b6200071b85826200068e565b8655506200078b565b601f1984166200073486620004d0565b60005b828110156200075e5784890151825560018201915060208501945060208101905062000737565b868310156200077e57848901516200077a601f8916826200066e565b8355505b6001600288020188555050505b505050505050565b7f4e487b7100000000000000000000000000000000000000000000000000000000600052601160045260246000fd5b6000620007cf8262000558565b91507fffffffffffffffffffffffffffffffffffffffffffffffffffffffffffffffff820362000804576200080362000793565b5b600182019050919050565b7f4e487b7100000000000000000000000000000000000000000000000000000000600052602160045260246000fd5b611383806200084e6000396000f3fe608060405234801561001057600080fd5b50600436106100935760003560e01c80634c0a6af0116100665780634c0a6af01461012157806369a2ee0e1461012b578063b922394614610147578063c040e6b814610151578063d28178d71461016f57610093565b80630121b93f1461009857806306a49fce146100b45780632e4176cf146100d25780633477ee2e146100f0575b600080fd5b6100b260048036038101906100ad9190610b7d565b61018d565b005b6100bc610346565b6040516100c99190610cfc565b60405180910390f35b6100da610490565b6040516100e79190610d5f565b60405180910390f35b61010a60048036038101906101059190610b7d565b6104b4565b604051610118929190610dd3565b60405180910390f35b610129610570565b005b61014560048036038101906101409190610e2f565b6106a0565b005b61014f610858565b005b610159610988565b6040516101669190610ed3565b60405180910390f35b61017761099b565b6040516101849190610eee565b60405180910390f35b600060028111156101a1576101a0610e5c565b5b600160009054906101000a900460ff1660028111156101c3576101c2610e5c565b5b14610203576040517f08c379a00000000000000000000000000000000000000000000000000000000081526004016101fa90610f5c565b60405180910390fd5b6000600260003373ffffffffffffffffffffffffffffffffffffffff1673ffffffffffffffffffffffffffffffffffffffff16815260200190815260200160002090508060010160009054906101000a900460ff1615610298576040517f08c379a000000000000000000000000000000000000000000000000000000000815260040161028f90610fc8565b60405180910390fd5b60018160000154146102df576040517f08c379a00000000000000000000000000000000000000000000000000000000081526004016102d69061105a565b60405180910390fd5b60018160010160006101000a81548160ff02191690831515021790555081816002018190555060016000838154811061031b5761031a61107a565b5b9060005260206000209060020201600101600082825461033b91906110d8565b925050819055505050565b606060008054905067ffffffffffffffff8111156103675761036661110c565b5b60405190808252806020026020018201604052801561039a57816020015b60608152602001906001900390816103855790505b50905060005b60008054905081101561048c57600081815481106103c1576103c061107a565b5b906000526020600020906002020160000180546103dd9061116a565b80601f01602080910402602001604051908101604052809291908181526020018280546104099061116a565b80156104565780601f1061042b57610100808354040283529160200191610456565b820191906000526020600020905b81548152906001019060200180831161043957829003601f168201915b505050505082828151811061046e5761046d61107a565b5b602002602001018190525080806104849061119b565b9150506103a0565b5090565b60018054906101000a900473ffffffffffffffffffffffffffffffffffffffff1681565b600081815481106104c457600080fd5b90600052602060002090600202016000915090508060000180546104e79061116a565b80601f01602080910402602001604051908101604052809291908181526020018280546105139061116a565b80156105605780601f1061053557610100808354040283529160200191610560565b820191906000526020600020905b81548152906001019060200180831161054357829003601f168201915b5050505050908060010154905082565b60018054906101000a900473ffffffffffffffffffffffffffffffffffffffff1673ffffffffffffffffffffffffffffffffffffffff163373ffffffffffffffffffffffffffffffffffffffff16146105fe576040517f08c379a00000000000000000000000000000000000000000000000000000000081526004016105f590611255565b60405180910390fd5b60028081111561061157610610610e5c565b5b600160009054906101000a900460ff16600281111561063357610632610e5c565b5b14610673576040517f08c379a000000000000000000000000000000000000000000000000000000000815260040161066a906112c1565b60405180910390fd5b6000600160006101000a81548160ff0219169083600281111561069957610698610e5c565b5b0217905550565b60018054906101000a900473ffffffffffffffffffffffffffffffffffffffff1673ffffffffffffffffffffffffffffffffffffffff163373ffffffffffffffffffffffffffffffffffffffff161461072e576040517f08c379a000000000000000000000000000000000000000000000000000000000815260040161072590610fc8565b60405180910390fd5b600260008273ffffffffffffffffffffffffffffffffffffffff1673ffffffffffffffffffffffffffffffffffffffff16815260200190815260200160002060010160009054906101000a900460ff16156107be576040517f08c379a00000000000000000000000000000000000000000000000000000000081526004016107b590610fc8565b60405180910390fd5b6000600260008373ffffffffffffffffffffffffffffffffffffffff1673ffffffffffffffffffffffffffffffffffffffff168152602001908152602001600020600001541461080d57600080fd5b6001600260008373ffffffffffffffffffffffffffffffffffffffff1673ffffffffffffffffffffffffffffffffffffffff1681526020019081526020016000206000018190555050565b60018054906101000a900473ffffffffffffffffffffffffffffffffffffffff1673ffffffffffffffffffffffffffffffffffffffff163373ffffffffffffffffffffffffffffffffffffffff16146108e6576040517f08c379a00000000000000000000000000000000000000000000000000000000081526004016108dd90611255565b60405180910390fd5b600060028111156108fa576108f9610e5c565b5b600160009054906101000a900460ff16600281111561091c5761091b610e5c565b5b1461095c576040517f08c379a000000000000000000000000000000000000000000000000000000000815260040161095390610f5c565b60405180910390fd5b60018060006101000a81548160ff0219169083600281111561098157610980610e5c565b5b0217905550565b600160009054906101000a900460ff1681565b6060600160028111156109b1576109b0610e5c565b5b600160009054906101000a900460ff1660028111156109d3576109d2610e5c565b5b14610a13576040517f08c379a0000000000000000000000000000000000000000000000000000000008152600401610a0a9061132d565b60405180910390fd5b6000805b600080549050811015610b3d578160008281548110610a3957610a3861107a565b5b9060005260206000209060020201600101541115610b2a5760008181548110610a6557610a6461107a565b5b906000526020600020906002020160010154915060008181548110610a8d57610a8c61107a565b5b90600052602060002090600202016000018054610aa99061116a565b80601f0160208091040260200160405190810160405280929190818152602001828054610ad59061116a565b8015610b225780601f10610af757610100808354040283529160200191610b22565b820191906000526020600020905b815481529060010190602001808311610b0557829003601f168201915b505050505092505b8080610b359061119b565b915050610a17565b505090565b600080fd5b6000819050919050565b610b5a81610b47565b8114610b6557600080fd5b50565b600081359050610b7781610b51565b92915050565b600060208284031215610b9357610b92610b42565b5b6000610ba184828501610b68565b91505092915050565b600081519050919050565b600082825260208201905092915050565b6000819050602082019050919050565b600081519050919050565b600082825260208201905092915050565b60005b83811015610c10578082015181840152602081019050610bf5565b60008484015250505050565b6000601f19601f8301169050919050565b6000610c3882610bd6565b610c428185610be1565b9350610c52818560208601610bf2565b610c5b81610c1c565b840191505092915050565b6000610c728383610c2d565b905092915050565b6000602082019050919050565b6000610c9282610baa565b610c9c8185610bb5565b935083602082028501610cae85610bc6565b8060005b85811015610cea5784840389528151610ccb8582610c66565b9450610cd683610c7a565b925060208a01995050600181019050610cb2565b50829750879550505050505092915050565b60006020820190508181036000830152610d168184610c87565b905092915050565b600073ffffffffffffffffffffffffffffffffffffffff82169050919050565b6000610d4982610d1e565b9050919050565b610d5981610d3e565b82525050565b6000602082019050610d746000830184610d50565b92915050565b600082825260208201905092915050565b6000610d9682610bd6565b610da08185610d7a565b9350610db0818560208601610bf2565b610db981610c1c565b840191505092915050565b610dcd81610b47565b82525050565b60006040820190508181036000830152610ded8185610d8b565b9050610dfc6020830184610dc4565b9392505050565b610e0c81610d3e565b8114610e1757600080fd5b50565b600081359050610e2981610e03565b92915050565b600060208284031215610e4557610e44610b42565b5b6000610e5384828501610e1a565b91505092915050565b7f4e487b7100000000000000000000000000000000000000000000000000000000600052602160045260246000fd5b60038110610e9c57610e9b610e5c565b5b50565b6000819050610ead82610e8b565b919050565b6000610ebd82610e9f565b9050919050565b610ecd81610eb2565b82525050565b6000602082019050610ee86000830184610ec4565b92915050565b60006020820190508181036000830152610f088184610d8b565b905092915050565b7f6974206d75737420626520737461727465656400000000000000000000000000600082015250565b6000610f46601383610d7a565b9150610f5182610f10565b602082019050919050565b60006020820190508181036000830152610f7581610f39565b9050919050565b7f566f74657220616c726561647920766f74656400000000000000000000000000600082015250565b6000610fb2601383610d7a565b9150610fbd82610f7c565b602082019050919050565b60006020820190508181036000830152610fe181610fa5565b9050919050565b7f5573657220776f6e27742068617665207065726d697373696f6e20666f72207660008201527f6f74696e67000000000000000000000000000000000000000000000000000000602082015250565b6000611044602583610d7a565b915061104f82610fe8565b604082019050919050565b6000602082019050818103600083015261107381611037565b9050919050565b7f4e487b7100000000000000000000000000000000000000000000000000000000600052603260045260246000fd5b7f4e487b7100000000000000000000000000000000000000000000000000000000600052601160045260246000fd5b60006110e382610b47565b91506110ee83610b47565b9250828201905080821115611106576111056110a9565b5b92915050565b7f4e487b7100000000000000000000000000000000000000000000000000000000600052604160045260246000fd5b7f4e487b7100000000000000000000000000000000000000000000000000000000600052602260045260246000fd5b6000600282049050600182168061118257607f821691505b6020821081036111955761119461113b565b5b50919050565b60006111a682610b47565b91507fffffffffffffffffffffffffffffffffffffffffffffffffffffffffffffffff82036111d8576111d76110a9565b5b600182019050919050565b7f4f6e6c7920636861697220706572736f6e2063616e20706572666f726d206f7060008201527f65726174696f6e73000000000000000000000000000000000000000000000000602082015250565b600061123f602883610d7a565b915061124a826111e3565b604082019050919050565b6000602082019050818103600083015261126e81611232565b9050919050565b7f6974206d75737420626520637265617465640000000000000000000000000000600082015250565b60006112ab601283610d7a565b91506112b682611275565b602082019050919050565b600060208201905081810360008301526112da8161129e565b9050919050565b7f6974206d75737420626520656e64656400000000000000000000000000000000600082015250565b6000611317601083610d7a565b9150611322826112e1565b602082019050919050565b600060208201905081810360008301526113468161130a565b905091905056fea2646970667358221220eea001ce56918f95c27c8bcd54d9f905967910493c47b79024716a27eeb705d064736f6c63430008110033",
  "linkReferences": {},
  "deployedLinkReferences": {}
}