{
  "_format": "hh-sol-artifact-1",
  "contractName": "Ballot",
  "sourceName": "contracts/Voter.sol",
  "abi": [
    {
      "inputs": [
        {
          "internalType": "string[]",
          "name": "candidateNames",
          "type": "string[]"
        }
      ],
      "stateMutability": "nonpayable",
      "type": "constructor"
    },
    {
      "inputs": [
        {
          "internalType": "string[]",
          "name": "candidateNames",
          "type": "string[]"
        }
      ],
      "name": "addCandidates",
      "outputs": [],
      "stateMutability": "nonpayable",
      "type": "function"
    },
    {
      "inputs": [
        {
          "internalType": "uint256",
          "name": "",
          "type": "uint256"
        }
      ],
      "name": "candidates",
      "outputs": [
        {
          "internalType": "string",
          "name": "name",
          "type": "string"
        },
        {
          "internalType": "uint256",
          "name": "voteCount",
          "type": "uint256"
        }
      ],
      "stateMutability": "view",
      "type": "function"
    },
    {
      "inputs": [],
      "name": "chairperson",
      "outputs": [
        {
          "internalType": "address",
          "name": "",
          "type": "address"
        }
      ],
      "stateMutability": "view",
      "type": "function"
    },
    {
      "inputs": [],
      "name": "endVote",
      "outputs": [],
      "stateMutability": "nonpayable",
      "type": "function"
    },
    {
      "inputs": [],
      "name": "getCandidates",
      "outputs": [
        {
          "components": [
            {
              "internalType": "string",
              "name": "name",
              "type": "string"
            },
            {
              "internalType": "uint256",
              "name": "voteCount",
              "type": "uint256"
            }
          ],
          "internalType": "struct Ballot.Candidate[]",
          "name": "",
          "type": "tuple[]"
        }
      ],
      "stateMutability": "view",
      "type": "function"
    },
    {
      "inputs": [
        {
          "internalType": "address",
          "name": "voter",
          "type": "address"
        }
      ],
      "name": "giveRightToVote",
      "outputs": [],
      "stateMutability": "nonpayable",
      "type": "function"
    },
    {
      "inputs": [],
      "name": "startVote",
      "outputs": [],
      "stateMutability": "nonpayable",
      "type": "function"
    },
    {
      "inputs": [],
      "name": "state",
      "outputs": [
        {
          "internalType": "enum Ballot.State",
          "name": "",
          "type": "uint8"
        }
      ],
      "stateMutability": "view",
      "type": "function"
    },
    {
      "inputs": [
        {
          "internalType": "uint256",
          "name": "candidate",
          "type": "uint256"
        }
      ],
      "name": "vote",
      "outputs": [],
      "stateMutability": "nonpayable",
      "type": "function"
    },
    {
      "inputs": [
        {
          "internalType": "address",
          "name": "",
          "type": "address"
        }
      ],
      "name": "voters",
      "outputs": [
        {
          "internalType": "uint256",
          "name": "weight",
          "type": "uint256"
        },
        {
          "internalType": "bool",
          "name": "voted",
          "type": "bool"
        },
        {
          "internalType": "uint256",
          "name": "vote",
          "type": "uint256"
        }
      ],
      "stateMutability": "view",
      "type": "function"
    },
    {
      "inputs": [],
      "name": "winningCandidate",
      "outputs": [
        {
          "internalType": "string",
          "name": "winnerName_",
          "type": "string"
        }
      ],
      "stateMutability": "view",
      "type": "function"
    }
  ],
  "bytecode": "0x60806040523480156200001157600080fd5b506040516200240038038062002400833981810160405281019062000037919062000449565b336000806101000a81548173ffffffffffffffffffffffffffffffffffffffff021916908373ffffffffffffffffffffffffffffffffffffffff16021790555060018060008060009054906101000a900473ffffffffffffffffffffffffffffffffffffffff1673ffffffffffffffffffffffffffffffffffffffff1673ffffffffffffffffffffffffffffffffffffffff168152602001908152602001600020600001819055506000600360006101000a81548160ff021916908360028111156200010857620001076200049a565b5b021790555060005b8151811015620001b257600260405180604001604052808484815181106200013d576200013c620004c9565b5b602002602001015181526020016000815250908060018154018082558091505060019003906000526020600020906002020160009091909190915060008201518160000190816200018f919062000743565b506020820151816001015550508080620001a99062000859565b91505062000110565b5050620008a6565b6000604051905090565b600080fd5b600080fd5b600080fd5b6000601f19601f8301169050919050565b7f4e487b7100000000000000000000000000000000000000000000000000000000600052604160045260246000fd5b6200021e82620001d3565b810181811067ffffffffffffffff8211171562000240576200023f620001e4565b5b80604052505050565b600062000255620001ba565b905062000263828262000213565b919050565b600067ffffffffffffffff821115620002865762000285620001e4565b5b602082029050602081019050919050565b600080fd5b600080fd5b600067ffffffffffffffff821115620002bf57620002be620001e4565b5b620002ca82620001d3565b9050602081019050919050565b60005b83811015620002f7578082015181840152602081019050620002da565b60008484015250505050565b60006200031a6200031484620002a1565b62000249565b9050828152602081018484840111156200033957620003386200029c565b5b62000346848285620002d7565b509392505050565b600082601f830112620003665762000365620001ce565b5b81516200037884826020860162000303565b91505092915050565b600062000398620003928462000268565b62000249565b90508083825260208201905060208402830185811115620003be57620003bd62000297565b5b835b818110156200040c57805167ffffffffffffffff811115620003e757620003e6620001ce565b5b808601620003f689826200034e565b85526020850194505050602081019050620003c0565b5050509392505050565b600082601f8301126200042e576200042d620001ce565b5b81516200044084826020860162000381565b91505092915050565b600060208284031215620004625762000461620001c4565b5b600082015167ffffffffffffffff811115620004835762000482620001c9565b5b620004918482850162000416565b91505092915050565b7f4e487b7100000000000000000000000000000000000000000000000000000000600052602160045260246000fd5b7f4e487b7100000000000000000000000000000000000000000000000000000000600052603260045260246000fd5b600081519050919050565b7f4e487b7100000000000000000000000000000000000000000000000000000000600052602260045260246000fd5b600060028204905060018216806200054b57607f821691505b60208210810362000561576200056062000503565b5b50919050565b60008190508160005260206000209050919050565b60006020601f8301049050919050565b600082821b905092915050565b600060088302620005cb7fffffffffffffffffffffffffffffffffffffffffffffffffffffffffffffffff826200058c565b620005d786836200058c565b95508019841693508086168417925050509392505050565b6000819050919050565b6000819050919050565b6000620006246200061e6200061884620005ef565b620005f9565b620005ef565b9050919050565b6000819050919050565b620006408362000603565b620006586200064f826200062b565b84845462000599565b825550505050565b600090565b6200066f62000660565b6200067c81848462000635565b505050565b5b81811015620006a4576200069860008262000665565b60018101905062000682565b5050565b601f821115620006f357620006bd8162000567565b620006c8846200057c565b81016020851015620006d8578190505b620006f0620006e7856200057c565b83018262000681565b50505b505050565b600082821c905092915050565b60006200071860001984600802620006f8565b1980831691505092915050565b600062000733838362000705565b9150826002028217905092915050565b6200074e82620004f8565b67ffffffffffffffff8111156200076a5762000769620001e4565b5b62000776825462000532565b62000783828285620006a8565b600060209050601f831160018114620007bb5760008415620007a6578287015190505b620007b2858262000725565b86555062000822565b601f198416620007cb8662000567565b60005b82811015620007f557848901518255600182019150602085019450602081019050620007ce565b8683101562000815578489015162000811601f89168262000705565b8355505b6001600288020188555050505b505050505050565b7f4e487b7100000000000000000000000000000000000000000000000000000000600052601160045260246000fd5b60006200086682620005ef565b91507fffffffffffffffffffffffffffffffffffffffffffffffffffffffffffffffff82036200089b576200089a6200082a565b5b600182019050919050565b611b4a80620008b66000396000f3fe608060405234801561001057600080fd5b50600436106100a95760003560e01c80639e7b8d61116100715780639e7b8d6114610141578063a3ec138d1461015d578063a999e5621461018f578063b9223946146101ab578063c19d93fb146101b5578063d28178d7146101d3576100a9565b80630121b93f146100ae57806306a49fce146100ca5780632e4176cf146100e85780633477ee2e146101065780634c0a6af014610137575b600080fd5b6100c860048036038101906100c39190610d1b565b6101f1565b005b6100d26103ad565b6040516100df9190610ee6565b60405180910390f35b6100f06104a8565b6040516100fd9190610f49565b60405180910390f35b610120600480360381019061011b9190610d1b565b6104cc565b60405161012e929190610fbd565b60405180910390f35b61013f610588565b005b61015b60048036038101906101569190611019565b6106b9565b005b61017760048036038101906101729190611019565b610870565b60405161018693929190611061565b60405180910390f35b6101a960048036038101906101a491906112b3565b6108a7565b005b6101b36109e7565b005b6101bd610b18565b6040516101ca9190611373565b60405180910390f35b6101db610b2b565b6040516101e8919061138e565b60405180910390f35b60016002811115610205576102046112fc565b5b600360009054906101000a900460ff166002811115610227576102266112fc565b5b14610267576040517f08c379a000000000000000000000000000000000000000000000000000000000815260040161025e906113fc565b60405180910390fd5b6000600160003373ffffffffffffffffffffffffffffffffffffffff1673ffffffffffffffffffffffffffffffffffffffff168152602001908152602001600020905060008160000154036102f1576040517f08c379a00000000000000000000000000000000000000000000000000000000081526004016102e890611468565b60405180910390fd5b8060010160009054906101000a900460ff1615610343576040517f08c379a000000000000000000000000000000000000000000000000000000000815260040161033a906114d4565b60405180910390fd5b60018160010160006101000a81548160ff021916908315150217905550818160020181905550806000015460028381548110610382576103816114f4565b5b906000526020600020906002020160010160008282546103a29190611552565b925050819055505050565b60606002805480602002602001604051908101604052809291908181526020016000905b8282101561049f5783829060005260206000209060020201604051806040016040529081600082018054610404906115b5565b80601f0160208091040260200160405190810160405280929190818152602001828054610430906115b5565b801561047d5780601f106104525761010080835404028352916020019161047d565b820191906000526020600020905b81548152906001019060200180831161046057829003601f168201915b50505050508152602001600182015481525050815260200190600101906103d1565b50505050905090565b60008054906101000a900473ffffffffffffffffffffffffffffffffffffffff1681565b600281815481106104dc57600080fd5b90600052602060002090600202016000915090508060000180546104ff906115b5565b80601f016020809104026020016040519081016040528092919081815260200182805461052b906115b5565b80156105785780601f1061054d57610100808354040283529160200191610578565b820191906000526020600020905b81548152906001019060200180831161055b57829003601f168201915b5050505050908060010154905082565b60008054906101000a900473ffffffffffffffffffffffffffffffffffffffff1673ffffffffffffffffffffffffffffffffffffffff163373ffffffffffffffffffffffffffffffffffffffff1614610616576040517f08c379a000000000000000000000000000000000000000000000000000000000815260040161060d90611658565b60405180910390fd5b6000600281111561062a576106296112fc565b5b600360009054906101000a900460ff16600281111561064c5761064b6112fc565b5b1461068c576040517f08c379a0000000000000000000000000000000000000000000000000000000008152600401610683906116c4565b60405180910390fd5b6001600360006101000a81548160ff021916908360028111156106b2576106b16112fc565b5b0217905550565b60008054906101000a900473ffffffffffffffffffffffffffffffffffffffff1673ffffffffffffffffffffffffffffffffffffffff163373ffffffffffffffffffffffffffffffffffffffff1614610747576040517f08c379a000000000000000000000000000000000000000000000000000000000815260040161073e90611756565b60405180910390fd5b600160008273ffffffffffffffffffffffffffffffffffffffff1673ffffffffffffffffffffffffffffffffffffffff16815260200190815260200160002060010160009054906101000a900460ff16156107d7576040517f08c379a00000000000000000000000000000000000000000000000000000000081526004016107ce906117c2565b60405180910390fd5b6000600160008373ffffffffffffffffffffffffffffffffffffffff1673ffffffffffffffffffffffffffffffffffffffff168152602001908152602001600020600001541461082657600080fd5b60018060008373ffffffffffffffffffffffffffffffffffffffff1673ffffffffffffffffffffffffffffffffffffffff1681526020019081526020016000206000018190555050565b60016020528060005260406000206000915090508060000154908060010160009054906101000a900460ff16908060020154905083565b6002808111156108ba576108b96112fc565b5b600360009054906101000a900460ff1660028111156108dc576108db6112fc565b5b1461091c576040517f08c379a00000000000000000000000000000000000000000000000000000000081526004016109139061182e565b60405180910390fd5b6000600360006101000a81548160ff02191690836002811115610942576109416112fc565b5b021790555060005b81518110156109e35760026040518060400160405280848481518110610973576109726114f4565b5b602002602001015181526020016000815250908060018154018082558091505060019003906000526020600020906002020160009091909190915060008201518160000190816109c391906119fa565b5060208201518160010155505080806109db90611acc565b91505061094a565b5050565b60008054906101000a900473ffffffffffffffffffffffffffffffffffffffff1673ffffffffffffffffffffffffffffffffffffffff163373ffffffffffffffffffffffffffffffffffffffff1614610a75576040517f08c379a0000000000000000000000000000000000000000000000000000000008152600401610a6c90611658565b60405180910390fd5b60016002811115610a8957610a886112fc565b5b600360009054906101000a900460ff166002811115610aab57610aaa6112fc565b5b14610aeb576040517f08c379a0000000000000000000000000000000000000000000000000000000008152600401610ae2906113fc565b60405180910390fd5b6002600360006101000a81548160ff02191690836002811115610b1157610b106112fc565b5b0217905550565b600360009054906101000a900460ff1681565b6060600280811115610b4057610b3f6112fc565b5b600360009054906101000a900460ff166002811115610b6257610b616112fc565b5b14610ba2576040517f08c379a0000000000000000000000000000000000000000000000000000000008152600401610b999061182e565b60405180910390fd5b6000805b600280549050811015610ccc578160028281548110610bc857610bc76114f4565b5b9060005260206000209060020201600101541115610cb95760028181548110610bf457610bf36114f4565b5b906000526020600020906002020160010154915060028181548110610c1c57610c1b6114f4565b5b90600052602060002090600202016000018054610c38906115b5565b80601f0160208091040260200160405190810160405280929190818152602001828054610c64906115b5565b8015610cb15780601f10610c8657610100808354040283529160200191610cb1565b820191906000526020600020905b815481529060010190602001808311610c9457829003601f168201915b505050505092505b8080610cc490611acc565b915050610ba6565b505090565b6000604051905090565b600080fd5b600080fd5b6000819050919050565b610cf881610ce5565b8114610d0357600080fd5b50565b600081359050610d1581610cef565b92915050565b600060208284031215610d3157610d30610cdb565b5b6000610d3f84828501610d06565b91505092915050565b600081519050919050565b600082825260208201905092915050565b6000819050602082019050919050565b600081519050919050565b600082825260208201905092915050565b60005b83811015610dae578082015181840152602081019050610d93565b60008484015250505050565b6000601f19601f8301169050919050565b6000610dd682610d74565b610de08185610d7f565b9350610df0818560208601610d90565b610df981610dba565b840191505092915050565b610e0d81610ce5565b82525050565b60006040830160008301518482036000860152610e308282610dcb565b9150506020830151610e456020860182610e04565b508091505092915050565b6000610e5c8383610e13565b905092915050565b6000602082019050919050565b6000610e7c82610d48565b610e868185610d53565b935083602082028501610e9885610d64565b8060005b85811015610ed45784840389528151610eb58582610e50565b9450610ec083610e64565b925060208a01995050600181019050610e9c565b50829750879550505050505092915050565b60006020820190508181036000830152610f008184610e71565b905092915050565b600073ffffffffffffffffffffffffffffffffffffffff82169050919050565b6000610f3382610f08565b9050919050565b610f4381610f28565b82525050565b6000602082019050610f5e6000830184610f3a565b92915050565b600082825260208201905092915050565b6000610f8082610d74565b610f8a8185610f64565b9350610f9a818560208601610d90565b610fa381610dba565b840191505092915050565b610fb781610ce5565b82525050565b60006040820190508181036000830152610fd78185610f75565b9050610fe66020830184610fae565b9392505050565b610ff681610f28565b811461100157600080fd5b50565b60008135905061101381610fed565b92915050565b60006020828403121561102f5761102e610cdb565b5b600061103d84828501611004565b91505092915050565b60008115159050919050565b61105b81611046565b82525050565b60006060820190506110766000830186610fae565b6110836020830185611052565b6110906040830184610fae565b949350505050565b600080fd5b7f4e487b7100000000000000000000000000000000000000000000000000000000600052604160045260246000fd5b6110d582610dba565b810181811067ffffffffffffffff821117156110f4576110f361109d565b5b80604052505050565b6000611107610cd1565b905061111382826110cc565b919050565b600067ffffffffffffffff8211156111335761113261109d565b5b602082029050602081019050919050565b600080fd5b600080fd5b600067ffffffffffffffff8211156111695761116861109d565b5b61117282610dba565b9050602081019050919050565b82818337600083830152505050565b60006111a161119c8461114e565b6110fd565b9050828152602081018484840111156111bd576111bc611149565b5b6111c884828561117f565b509392505050565b600082601f8301126111e5576111e4611098565b5b81356111f584826020860161118e565b91505092915050565b600061121161120c84611118565b6110fd565b9050808382526020820190506020840283018581111561123457611233611144565b5b835b8181101561127b57803567ffffffffffffffff81111561125957611258611098565b5b80860161126689826111d0565b85526020850194505050602081019050611236565b5050509392505050565b600082601f83011261129a57611299611098565b5b81356112aa8482602086016111fe565b91505092915050565b6000602082840312156112c9576112c8610cdb565b5b600082013567ffffffffffffffff8111156112e7576112e6610ce0565b5b6112f384828501611285565b91505092915050565b7f4e487b7100000000000000000000000000000000000000000000000000000000600052602160045260246000fd5b6003811061133c5761133b6112fc565b5b50565b600081905061134d8261132b565b919050565b600061135d8261133f565b9050919050565b61136d81611352565b82525050565b60006020820190506113886000830184611364565b92915050565b600060208201905081810360008301526113a88184610f75565b905092915050565b7f6974206d75737420626520696e20566f74696e6720506572696f640000000000600082015250565b60006113e6601b83610f64565b91506113f1826113b0565b602082019050919050565b60006020820190508181036000830152611415816113d9565b9050919050565b7f486173206e6f20726967687420746f20766f7465000000000000000000000000600082015250565b6000611452601483610f64565b915061145d8261141c565b602082019050919050565b6000602082019050818103600083015261148181611445565b9050919050565b7f416c726561647920766f7465642e000000000000000000000000000000000000600082015250565b60006114be600e83610f64565b91506114c982611488565b602082019050919050565b600060208201905081810360008301526114ed816114b1565b9050919050565b7f4e487b7100000000000000000000000000000000000000000000000000000000600052603260045260246000fd5b7f4e487b7100000000000000000000000000000000000000000000000000000000600052601160045260246000fd5b600061155d82610ce5565b915061156883610ce5565b92508282019050808211156115805761157f611523565b5b92915050565b7f4e487b7100000000000000000000000000000000000000000000000000000000600052602260045260246000fd5b600060028204905060018216806115cd57607f821691505b6020821081036115e0576115df611586565b5b50919050565b7f4f6e6c79206368616972706572736f6e2063616e20737461727420616e64206560008201527f6e642074686520766f74696e6700000000000000000000000000000000000000602082015250565b6000611642602d83610f64565b915061164d826115e6565b604082019050919050565b6000602082019050818103600083015261167181611635565b9050919050565b7f6974206d75737420626520696e20537461727465640000000000000000000000600082015250565b60006116ae601583610f64565b91506116b982611678565b602082019050919050565b600060208201905081810360008301526116dd816116a1565b9050919050565b7f4f6e6c79206368616972706572736f6e2063616e20676976652072696768742060008201527f746f20766f74652e000000000000000000000000000000000000000000000000602082015250565b6000611740602883610f64565b915061174b826116e4565b604082019050919050565b6000602082019050818103600083015261176f81611733565b9050919050565b7f54686520766f74657220616c726561647920766f7465642e0000000000000000600082015250565b60006117ac601883610f64565b91506117b782611776565b602082019050919050565b600060208201905081810360008301526117db8161179f565b9050919050565b7f6974206d75737420626520696e20456e64656420506572696f64000000000000600082015250565b6000611818601a83610f64565b9150611823826117e2565b602082019050919050565b600060208201905081810360008301526118478161180b565b9050919050565b60008190508160005260206000209050919050565b60006020601f8301049050919050565b600082821b905092915050565b6000600883026118b07fffffffffffffffffffffffffffffffffffffffffffffffffffffffffffffffff82611873565b6118ba8683611873565b95508019841693508086168417925050509392505050565b6000819050919050565b60006118f76118f26118ed84610ce5565b6118d2565b610ce5565b9050919050565b6000819050919050565b611911836118dc565b61192561191d826118fe565b848454611880565b825550505050565b600090565b61193a61192d565b611945818484611908565b505050565b5b818110156119695761195e600082611932565b60018101905061194b565b5050565b601f8211156119ae5761197f8161184e565b61198884611863565b81016020851015611997578190505b6119ab6119a385611863565b83018261194a565b50505b505050565b600082821c905092915050565b60006119d1600019846008026119b3565b1980831691505092915050565b60006119ea83836119c0565b9150826002028217905092915050565b611a0382610d74565b67ffffffffffffffff811115611a1c57611a1b61109d565b5b611a2682546115b5565b611a3182828561196d565b600060209050601f831160018114611a645760008415611a52578287015190505b611a5c85826119de565b865550611ac4565b601f198416611a728661184e565b60005b82811015611a9a57848901518255600182019150602085019450602081019050611a75565b86831015611ab75784890151611ab3601f8916826119c0565b8355505b6001600288020188555050505b505050505050565b6000611ad782610ce5565b91507fffffffffffffffffffffffffffffffffffffffffffffffffffffffffffffffff8203611b0957611b08611523565b5b60018201905091905056fea264697066735822122041e21050b9b2437170a5d6ec105b7ff468676f0471a67fb4bd5fff086ea39bfb64736f6c63430008110033",
  "linkReferences": {},
  "deployedLinkReferences": {}
}