{
  "_format": "hh-sol-artifact-1",
  "contractName": "FlashLoanReceiver",
  "sourceName": "contracts/FlashLoanReceiver.sol",
  "abi": [
    {
      "inputs": [
        {
          "internalType": "address",
          "name": "_poolAddress",
          "type": "address"
        }
      ],
      "stateMutability": "nonpayable",
      "type": "constructor"
    },
    {
      "anonymous": false,
      "inputs": [
        {
          "indexed": false,
          "internalType": "address",
          "name": "token",
          "type": "address"
        },
        {
          "indexed": false,
          "internalType": "uint256",
          "name": "amount",
          "type": "uint256"
        }
      ],
      "name": "LoanReceived",
      "type": "event"
    },
    {
      "inputs": [
        {
          "internalType": "uint256",
          "name": "_amount",
          "type": "uint256"
        }
      ],
      "name": "executeFlashLoan",
      "outputs": [],
      "stateMutability": "nonpayable",
      "type": "function"
    },
    {
      "inputs": [
        {
          "internalType": "address",
          "name": "_tokenAddress",
          "type": "address"
        },
        {
          "internalType": "uint256",
          "name": "_amount",
          "type": "uint256"
        }
      ],
      "name": "receiveTokens",
      "outputs": [],
      "stateMutability": "nonpayable",
      "type": "function"
    }
  ],
  "bytecode": "0x608060405234801561001057600080fd5b506040516109733803806109738339818101604052810190610032919061011c565b806000806101000a81548173ffffffffffffffffffffffffffffffffffffffff021916908373ffffffffffffffffffffffffffffffffffffffff16021790555033600160006101000a81548173ffffffffffffffffffffffffffffffffffffffff021916908373ffffffffffffffffffffffffffffffffffffffff16021790555050610149565b600080fd5b600073ffffffffffffffffffffffffffffffffffffffff82169050919050565b60006100e9826100be565b9050919050565b6100f9816100de565b811461010457600080fd5b50565b600081519050610116816100f0565b92915050565b600060208284031215610132576101316100b9565b5b600061014084828501610107565b91505092915050565b61081b806101586000396000f3fe608060405234801561001057600080fd5b50600436106100365760003560e01c8063357291301461003b578063fb056f6814610057575b600080fd5b6100556004803603810190610050919061046d565b610073565b005b610071600480360381019061006c91906104ad565b6102b6565b005b60008054906101000a900473ffffffffffffffffffffffffffffffffffffffff1673ffffffffffffffffffffffffffffffffffffffff163373ffffffffffffffffffffffffffffffffffffffff1614610101576040517f08c379a00000000000000000000000000000000000000000000000000000000081526004016100f890610537565b60405180910390fd5b808273ffffffffffffffffffffffffffffffffffffffff166370a08231306040518263ffffffff1660e01b815260040161013b9190610566565b602060405180830381865afa158015610158573d6000803e3d6000fd5b505050506040513d601f19601f8201168201806040525081019061017c9190610596565b146101bc576040517f08c379a00000000000000000000000000000000000000000000000000000000081526004016101b39061060f565b60405180910390fd5b7f1eb85bd961c2383a0fab35aca88c37d338e2c256ca614015fb37027205bfe94982826040516101ed92919061063e565b60405180910390a18173ffffffffffffffffffffffffffffffffffffffff1663a9059cbb33836040518363ffffffff1660e01b815260040161023092919061063e565b6020604051808303816000875af115801561024f573d6000803e3d6000fd5b505050506040513d601f19601f82011682018060405250810190610273919061069f565b6102b2576040517f08c379a00000000000000000000000000000000000000000000000000000000081526004016102a990610718565b60405180910390fd5b5050565b600160009054906101000a900473ffffffffffffffffffffffffffffffffffffffff1673ffffffffffffffffffffffffffffffffffffffff163373ffffffffffffffffffffffffffffffffffffffff1614610346576040517f08c379a000000000000000000000000000000000000000000000000000000000815260040161033d906107aa565b60405180910390fd5b60008054906101000a900473ffffffffffffffffffffffffffffffffffffffff1673ffffffffffffffffffffffffffffffffffffffff16639ab603b9826040518263ffffffff1660e01b815260040161039f91906107ca565b600060405180830381600087803b1580156103b957600080fd5b505af11580156103cd573d6000803e3d6000fd5b5050505050565b600080fd5b600073ffffffffffffffffffffffffffffffffffffffff82169050919050565b6000610404826103d9565b9050919050565b610414816103f9565b811461041f57600080fd5b50565b6000813590506104318161040b565b92915050565b6000819050919050565b61044a81610437565b811461045557600080fd5b50565b60008135905061046781610441565b92915050565b60008060408385031215610484576104836103d4565b5b600061049285828601610422565b92505060206104a385828601610458565b9150509250929050565b6000602082840312156104c3576104c26103d4565b5b60006104d184828501610458565b91505092915050565b600082825260208201905092915050565b7f53656e646572206d75737420626520706f6f6c00000000000000000000000000600082015250565b60006105216013836104da565b915061052c826104eb565b602082019050919050565b6000602082019050818103600083015261055081610514565b9050919050565b610560816103f9565b82525050565b600060208201905061057b6000830184610557565b92915050565b60008151905061059081610441565b92915050565b6000602082840312156105ac576105ab6103d4565b5b60006105ba84828501610581565b91505092915050565b7f6661696c656420746f20676574206c6f616e206261636b000000000000000000600082015250565b60006105f96017836104da565b9150610604826105c3565b602082019050919050565b60006020820190508181036000830152610628816105ec565b9050919050565b61063881610437565b82525050565b60006040820190506106536000830185610557565b610660602083018461062f565b9392505050565b60008115159050919050565b61067c81610667565b811461068757600080fd5b50565b60008151905061069981610673565b92915050565b6000602082840312156106b5576106b46103d4565b5b60006106c38482850161068a565b91505092915050565b7f5472616e73666572206f6620746f6b656e206661696c65640000000000000000600082015250565b60006107026018836104da565b915061070d826106cc565b602082019050919050565b60006020820190508181036000830152610731816106f5565b9050919050565b7f4f6e6c79206f776e65722063616e2043616c6c20746869732066756e6374696f60008201527f6e00000000000000000000000000000000000000000000000000000000000000602082015250565b60006107946021836104da565b915061079f82610738565b604082019050919050565b600060208201905081810360008301526107c381610787565b9050919050565b60006020820190506107df600083018461062f565b9291505056fea264697066735822122014e768e3fcdeeb1f3586f2c1d345093f9cf3677bcf3dc4fae86c1b1be576dba764736f6c63430008110033",
  "linkReferences": {},
  "deployedLinkReferences": {}
}