{
  "_format": "hh-sol-artifact-1",
  "contractName": "FlashLoan",
  "sourceName": "contracts/FlashLoan.sol",
  "abi": [
    {
      "inputs": [
        {
          "internalType": "address",
          "name": "_tokenAddress",
          "type": "address"
        }
      ],
      "stateMutability": "nonpayable",
      "type": "constructor"
    },
    {
      "inputs": [
        {
          "internalType": "uint256",
          "name": "_amount",
          "type": "uint256"
        }
      ],
      "name": "depositTokens",
      "outputs": [],
      "stateMutability": "nonpayable",
      "type": "function"
    },
    {
      "inputs": [
        {
          "internalType": "uint256",
          "name": "_borrowAmount",
          "type": "uint256"
        }
      ],
      "name": "flashLoan",
      "outputs": [],
      "stateMutability": "nonpayable",
      "type": "function"
    },
    {
      "inputs": [],
      "name": "poolBalance",
      "outputs": [
        {
          "internalType": "uint256",
          "name": "",
          "type": "uint256"
        }
      ],
      "stateMutability": "view",
      "type": "function"
    },
    {
      "inputs": [],
      "name": "token",
      "outputs": [
        {
          "internalType": "contract Token",
          "name": "",
          "type": "address"
        }
      ],
      "stateMutability": "view",
      "type": "function"
    }
  ],
  "bytecode": "0x608060405234801561001057600080fd5b50604051610c89380380610c89833981810160405281019061003291906100e4565b600160008190555080600160006101000a81548173ffffffffffffffffffffffffffffffffffffffff021916908373ffffffffffffffffffffffffffffffffffffffff16021790555050610111565b600080fd5b600073ffffffffffffffffffffffffffffffffffffffff82169050919050565b60006100b182610086565b9050919050565b6100c1816100a6565b81146100cc57600080fd5b50565b6000815190506100de816100b8565b92915050565b6000602082840312156100fa576100f9610081565b5b6000610108848285016100cf565b91505092915050565b610b69806101206000396000f3fe608060405234801561001057600080fd5b506004361061004c5760003560e01c806396365d44146100515780639ab603b91461006f578063dd49756e1461008b578063fc0c546a146100a7575b600080fd5b6100596100c5565b604051610066919061061e565b60405180910390f35b6100896004803603810190610084919061066a565b6100cb565b005b6100a560048036038101906100a0919061066a565b610470565b005b6100af6105c9565b6040516100bc9190610716565b60405180910390f35b60025481565b600260005403610110576040517f08c379a00000000000000000000000000000000000000000000000000000000081526004016101079061078e565b60405180910390fd5b60026000819055506000811161015b576040517f08c379a0000000000000000000000000000000000000000000000000000000008152600401610152906107fa565b60405180910390fd5b6000600160009054906101000a900473ffffffffffffffffffffffffffffffffffffffff1673ffffffffffffffffffffffffffffffffffffffff166370a08231306040518263ffffffff1660e01b81526004016101b8919061083b565b602060405180830381865afa1580156101d5573d6000803e3d6000fd5b505050506040513d601f19601f820116820180604052508101906101f9919061086b565b90508181101561023e576040517f08c379a0000000000000000000000000000000000000000000000000000000008152600401610235906108e4565b60405180910390fd5b80600254146102505761024f610904565b5b600160009054906101000a900473ffffffffffffffffffffffffffffffffffffffff1673ffffffffffffffffffffffffffffffffffffffff1663a9059cbb33846040518363ffffffff1660e01b81526004016102ad929190610933565b6020604051808303816000875af11580156102cc573d6000803e3d6000fd5b505050506040513d601f19601f820116820180604052508101906102f09190610994565b503373ffffffffffffffffffffffffffffffffffffffff166335729130600160009054906101000a900473ffffffffffffffffffffffffffffffffffffffff16846040518363ffffffff1660e01b815260040161034e929190610933565b600060405180830381600087803b15801561036857600080fd5b505af115801561037c573d6000803e3d6000fd5b505050506000600160009054906101000a900473ffffffffffffffffffffffffffffffffffffffff1673ffffffffffffffffffffffffffffffffffffffff166370a08231306040518263ffffffff1660e01b81526004016103dd919061083b565b602060405180830381865afa1580156103fa573d6000803e3d6000fd5b505050506040513d601f19601f8201168201806040525081019061041e919061086b565b905081811015610463576040517f08c379a000000000000000000000000000000000000000000000000000000000815260040161045a90610a0d565b60405180910390fd5b5050600160008190555050565b6002600054036104b5576040517f08c379a00000000000000000000000000000000000000000000000000000000081526004016104ac9061078e565b60405180910390fd5b600260008190555060008111610500576040517f08c379a00000000000000000000000000000000000000000000000000000000081526004016104f790610a79565b60405180910390fd5b600160009054906101000a900473ffffffffffffffffffffffffffffffffffffffff1673ffffffffffffffffffffffffffffffffffffffff166323b872dd3330846040518463ffffffff1660e01b815260040161055f93929190610a99565b6020604051808303816000875af115801561057e573d6000803e3d6000fd5b505050506040513d601f19601f820116820180604052508101906105a29190610994565b506105b8816002546105ef90919063ffffffff16565b600281905550600160008190555050565b600160009054906101000a900473ffffffffffffffffffffffffffffffffffffffff1681565b600081836105fd9190610aff565b905092915050565b6000819050919050565b61061881610605565b82525050565b6000602082019050610633600083018461060f565b92915050565b600080fd5b61064781610605565b811461065257600080fd5b50565b6000813590506106648161063e565b92915050565b6000602082840312156106805761067f610639565b5b600061068e84828501610655565b91505092915050565b600073ffffffffffffffffffffffffffffffffffffffff82169050919050565b6000819050919050565b60006106dc6106d76106d284610697565b6106b7565b610697565b9050919050565b60006106ee826106c1565b9050919050565b6000610700826106e3565b9050919050565b610710816106f5565b82525050565b600060208201905061072b6000830184610707565b92915050565b600082825260208201905092915050565b7f5265656e7472616e637947756172643a207265656e7472616e742063616c6c00600082015250565b6000610778601f83610731565b915061078382610742565b602082019050919050565b600060208201905081810360008301526107a78161076b565b9050919050565b7f4d75737420626f72726f77206174206c65617374206f6e6520746f6b656e0000600082015250565b60006107e4601e83610731565b91506107ef826107ae565b602082019050919050565b60006020820190508181036000830152610813816107d7565b9050919050565b600061082582610697565b9050919050565b6108358161081a565b82525050565b6000602082019050610850600083018461082c565b92915050565b6000815190506108658161063e565b92915050565b60006020828403121561088157610880610639565b5b600061088f84828501610856565b91505092915050565b7f4e6f7420656e6f75676820746f6b656e73000000000000000000000000000000600082015250565b60006108ce601183610731565b91506108d982610898565b602082019050919050565b600060208201905081810360008301526108fd816108c1565b9050919050565b7f4e487b7100000000000000000000000000000000000000000000000000000000600052600160045260246000fd5b6000604082019050610948600083018561082c565b610955602083018461060f565b9392505050565b60008115159050919050565b6109718161095c565b811461097c57600080fd5b50565b60008151905061098e81610968565b92915050565b6000602082840312156109aa576109a9610639565b5b60006109b88482850161097f565b91505092915050565b7f666c6173684c6f616e206861736e2774206265656e2070616964206261636b00600082015250565b60006109f7601f83610731565b9150610a02826109c1565b602082019050919050565b60006020820190508181036000830152610a26816109ea565b9050919050565b7f4d757374206465706f736974206f6e6520746f6b656e00000000000000000000600082015250565b6000610a63601683610731565b9150610a6e82610a2d565b602082019050919050565b60006020820190508181036000830152610a9281610a56565b9050919050565b6000606082019050610aae600083018661082c565b610abb602083018561082c565b610ac8604083018461060f565b949350505050565b7f4e487b7100000000000000000000000000000000000000000000000000000000600052601160045260246000fd5b6000610b0a82610605565b9150610b1583610605565b9250828201905080821115610b2d57610b2c610ad0565b5b9291505056fea2646970667358221220a14c53e4fd7ee4611d257ab995c53c8ca3c87fd61f8e2ca2f737105bffd989c664736f6c63430008110033",
  "linkReferences": {},
  "deployedLinkReferences": {}
}